:100000000C9438010C9469010C9469010C946901F9
:100010000C9469010C9469010C9469010C946901B8
:100020000C9469010C9469010C9469010C946901A8
:100030000C9469010C9469010C9469010C94690198
:100040000C9469010C9462080C9469010C94690188
:100050000C9469010C9469010C9469010C9465027B
:100060000C9469010C9479040C9445050C94690175
:100070000C9469010C9469010C9469010C94690158
:100080000C9490080C9469010C9469010C9469011A
:100090000C94AC040C9484050C9469010C946901D3
:1000A0000C9469010C9469010C94BE080C946901CC
:1000B0000C9469010C9469010C9469010C94EC088E
:1000C0000C9469010C9469010C9469010C94DF048F
:1000D0000C94C3050C9469010C9412050C9402064F
:1000E0000C946901920A950A880A8C0ACC0A990A2A
:1000F0009D0AA30AA70AAB0AB10AB50AB90ACC0A33
:10010000BF0AC30AC70A0C94B90A0C94A30A0C9438
:10011000A70A0C94CC0A0C941D040C949D0A0C9410
:10012000C9060C9412040C94880A0C94F2030C94E3
:10013000CE010C94B10A0C94AB0A0C94C70A0C942F
:10014000990A0C94920A0C94B50A0C94C30A0C9464
:10015000950A0C945C030C94BF0A0C94C6030C948F
:100160008C0A0C94D6030000090A02080B0C0D0738
:100170000603040100000000000000000000000071
:10018000000000000000000000000000000000006F
:10019000000011100F00000000000000000000002F
:1001A000000000000000000000000000010210201C
:1001B000200808102040102040800201020108049D
:1001C0000201010204081020408080402010080431
:1001D000020180040201804020100804020108048A
:1001E00002010102040810204080010204081020CE
:1001F00040800505050507050808080802020202F7
:100200000A0A0808040404040101010101010101B2
:100210000303030303030303040707070C0C0C0C7D
:100220000C0C0C0C02020202060606060606060666
:100230000B0B0B0B0B0B0B0B0000220025002800F7
:100240002B002E00310034000201000005010801DE
:100250000B0100002100240027002A002D0030009F
:10026000330001010000040107010A01CE01C906A3
:1002700011241FBECFEFD1E2DEBFCDBF00E00CBF27
:1002800012E0A0E0B2E0ECEFF7E100E00BBF02C04B
:1002900007900D92A237B107D9F725E0A2E7B2E0A7
:1002A00001C01D92A13CB207E1F711E0C8E3D1E023
:1002B00000E006C021970109802FFE010E94DA0BA1
:1002C000C633D10780E00807A9F70E946B010C94A0
:1002D0007A0B0C9400000E9470010E94F001FDCF87
:1002E0000E94FA0240E855E260E070E08AEE92E097
:1002F0000E94410668E070E088E792E00E94E4090D
:1003000069E070E082E792E00E94E4096AE070E050
:1003100085E792E00E94E40968E570E088E792E0F2
:100320000E941F0A67E072E08AEE92E00E94B40326
:1003300066E172E08AEE92E00E94B40361E272E04C
:100340008AEE92E00E94B4036FE272E08AEE92E0DD
:100350000E94B4036AE070E080E090E00C94D40264
:1003600080910002882359F083E090E0909302028C
:10037000809301021092000269E372E00BC08CE0EE
:1003800090E0909302028093010281E0809300024A
:100390006CE472E08AEE92E00C94B40388E792E099
:1003A0000E941A0985E792E00E941A0982E792E00A
:1003B0000C941A09CF938AEE92E00E94C603181695
:1003C000190634F48AEE92E00E94F203C82F01C0AD
:1003D000C0E08AEE92E00E9412048C2FCF91089523
:1003E0000E94DA0120910302309104022436310583
:1003F0003CF02D3494E039072CF02CE434E002C0BA
:1004000024E630E030930402209303026091050259
:1004100070910602683E93E079073CF0613D97E0F9
:1004200079072CF060ED77E002C068EE73E070931E
:10043000060260930502813621F4B9016B5F7F4F9C
:1004400005C0843651F4B9016550710970930402F6
:100450006093030282E792E01EC0873771F48091B7
:10046000010290910202680F791F70930602609357
:10047000050285E792E00C94EA09833779F48091CC
:10048000010290910202681B790B7093060260933F
:10049000050285E792E00E94EA090895813719F480
:1004A00064E570E004C0853631F46CE570E088E7FF
:1004B00092E00C941F0A823719F468E570E0F7CFD8
:1004C000883711F40C94B00108951F920F920FB663
:1004D0000F9211242F933F938F939F93AF93BF93CA
:1004E00080917C0290917D02A0917E02B0917F026A
:1004F00030917B0223E0230F2D3720F40196A11DBC
:10050000B11D05C026E8230F0296A11DB11D209341
:100510007B0280937C0290937D02A0937E02B09335
:100520007F028091800290918102A0918202B0911D
:1005300083020196A11DB11D8093800290938102D8
:10054000A0938202B0938302BF91AF919F918F914C
:100550003F912F910F900FBE0F901F9018953FB7AE
:10056000F8948091800290918102A0918202B091D2
:10057000830226B5A89B05C02F3F19F00196A11D47
:10058000B11D3FBFBA2FA92F982F8827820F911D29
:10059000A11DB11DBC01CD0142E0660F771F881F70
:1005A000991F4A95D1F70895CF92DF92EF92FF926B
:1005B000CF93DF936B017C010E94AF02EB01C1146A
:1005C000D104E104F10479F00E94AF026C1B7D0BB1
:1005D000683E7340A0F381E0C81AD108E108F10831
:1005E000C851DC4FECCFDF91CF91FF90EF90DF90BF
:1005F000CF900895789484B5826084BD84B581607D
:1006000084BD85B5826085BD85B5816085BDEEE61A
:10061000F0E0808181608083E1E8F0E010828081F9
:1006200082608083808181608083E0E8F0E0808167
:1006300081608083E1EBF0E0808184608083E0EB87
:10064000F0E0808181608083E1E9F0E08081826078
:100650008083808181608083E0E9F0E08081816037
:100660008083E1EAF0E08081826080838081816024
:100670008083E0EAF0E0808181608083E1E2F1E064
:10068000808182608083808181608083E0E2F1E00C
:10069000808181608083EAE7F0E0808184608083EC
:1006A0008081826080838081816080838081806896
:1006B00080831092C1000895CF92DF92EF92FF9253
:1006C0000F931F93CF93DF936C01EB017B01E40E3B
:1006D000F51E00E010E0CE15DF0561F06991D6014E
:1006E000ED91FC910190F081E02DC6011995080F64
:1006F000191FF1CFC801DF91CF911F910F91FF908A
:10070000EF90DF90CF9008956115710579F0FB01AE
:1007100001900020E9F73197AF01461B570BDC0130
:10072000ED91FC910280F381E02D199480E090E03E
:100730000895DC01ED91FC910190F081E02D199478
:100740000F931F93CF93DF93EC016DE00E94990309
:100750008C016AE0CE010E949903800F911FDF9106
:10076000CF911F910F9108950F931F93CF93DF9314
:10077000EC010E9484038C01CE010E94A003800F33
:10078000911FDF91CF911F910F910895FC01248556
:100790003585F901E05CFF4F80819181329620819F
:1007A0003181821B930B8F7399270895DC011C966E
:1007B000ED91FC911D97DF01A05CBF4F2D913C9105
:1007C000119712968D919C9111972817390739F03E
:1007D0008D919C91E80FF91F808190E008958FEF33
:1007E0009FEF0895FC01A485B585FD01E05CFF4FF6
:1007F000208131813296808191812817390779F0E3
:1008000080819181A80FB91F8C91208131812F5F48
:100810003F4F2F7333273183208390E008958FEF6C
:100820009FEF0895FC0181A1882329F0A489B5894F
:100830008C9186FFFBCF11A208950F931F93CF9346
:10084000DF93FC01A685B7858D01005C1F4FE80191
:100850008881998101968F739927AD014E5B5F4F17
:10086000EA012881398182179307D1F3E8012881B1
:100870003981A20FB31F6C93A685B785A05CBF4FCB
:1008800011969C938E93A689B7892C9181E090E074
:10089000078C02C0880F991F0A94E2F7822B8C9371
:1008A00081E081A30488F589E02D808180648083C4
:1008B00081E090E0DF91CF911F910F910895FB01AE
:1008C000E05CFF4F208131812F5F3F4F2F73332733
:1008D000DB01AE5BBF4F4D915C912417350741F0B2
:1008E00040815181DB01A40FB51F8C93318320839C
:1008F00008951F920F920FB60F9211240BB60F920C
:100900002F933F934F935F936F937F938F939F9317
:10091000AF93BF93EF93FF938091C00082FD07C018
:100920008091C60068EE74E00E945F0402C080916E
:10093000C600FF91EF91BF91AF919F918F917F91F1
:100940006F915F914F913F912F910F900BBE0F9040
:100950000FBE0F901F9018951F920F920FB60F9217
:1009600011240BB60F922F933F934F935F936F9386
:100970007F938F939F93AF93BF93EF93FF93809158
:10098000C80082FD07C08091CE0060E674E00E943E
:100990005F0402C08091CE00FF91EF91BF91AF91B3
:1009A0009F918F917F916F915F914F913F912F9187
:1009B0000F900BBE0F900FBE0F901F9018951F92B7
:1009C0000F920FB60F9211240BB60F922F933F93F5
:1009D0004F935F936F937F938F939F93AF93BF9347
:1009E000EF93FF938091D00082FD07C08091D600E5
:1009F00068ED73E00E945F0402C08091D600FF9111
:100A0000EF91BF91AF919F918F917F916F915F9186
:100A10004F913F912F910F900BBE0F900FBE0F90F3
:100A20001F9018951F920F920FB60F9211240BB6BC
:100A30000F922F933F934F935F936F937F938F9377
:100A40009F93AF93BF93EF93FF938091300182FD0B
:100A500007C08091360160E573E00E945F0402C028
:100A600080913601FF91EF91BF91AF919F918F914E
:100A70007F916F915F914F913F912F910F900BBE9E
:100A80000F900FBE0F901F9018951F920F920FB6E8
:100A90000F9211240BB60F922F933F938F939F9336
:100AA000EF93FF932091E4043091E5048091E604F4
:100AB0009091E7042817390731F48091C1008F7DA8
:100AC0008093C10014C0E091E604F091E704EC5576
:100AD000FB4F20818091E6049091E70401968F738B
:100AE00099279093E7048093E6042093C600FF9132
:100AF000EF919F918F913F912F910F900BBE0F908F
:100B00000FBE0F901F9018951F920F920FB60F9265
:100B100011240BB60F922F933F938F939F93EF93D4
:100B2000FF9320915C0430915D0480915E0490916C
:100B30005F042817390731F48091C9008F7D8093B5
:100B4000C90014C0E0915E04F0915F04E45EFB4FC5
:100B5000208180915E0490915F0401968F739927A4
:100B600090935F0480935E042093CE00FF91EF91F9
:100B70009F918F913F912F910F900BBE0F900FBEC1
:100B80000F901F9018951F920F920FB60F9211247D
:100B90000BB60F922F933F938F939F93EF93FF93F7
:100BA0002091D4033091D5038091D6039091D7033F
:100BB0002817390731F48091D1008F7D8093D100BF
:100BC00014C0E091D603F091D703EC56FC4F20817E
:100BD0008091D6039091D70301968F7399279093B4
:100BE000D7038093D6032093D600FF91EF919F9176
:100BF0008F913F912F910F900BBE0F900FBE0F90D2
:100C00001F9018951F920F920FB60F9211240BB6DA
:100C10000F922F933F938F939F93EF93FF93209186
:100C20004C0330914D0380914E0390914F03281750
:100C3000390731F4809131018F7D8093310114C0E7
:100C4000E0914E03F0914F03E45FFC4F20818091CF
:100C50004E0390914F0301968F73992790934F0302
:100C600080934E0320933601FF91EF919F918F91D6
:100C70003F912F910F900BBE0F900FBE0F901F90C2
:100C80001895CF92DF92EF92FF920F931F93CF931D
:100C9000DF93EC016A017B014115514E610571053D
:100CA00009F1EC89FD8981E090E008A002C0880F7D
:100CB000991F0A94E2F7808360E079E08DE390E089
:100CC000A70196010E94990B89019A01015011090F
:100CD0002109310936952795179507959801011532
:100CE0001041A8F0EC89FD89108260E874E88EE17B
:100CF00090E0A70196010E94990BDA01C9010197C2
:100D0000A109B109B695A795979587959C01E889A2
:100D1000F9893083EA89FB89208319A2EE89FF894A
:100D2000408181E090E09C010C8C02C0220F331FB7
:100D30000A94E2F7242B2083EE89FF8940819C01ED
:100D40000D8C02C0220F331F0A94E2F7242B20835C
:100D5000EE89FF8940819C010E8C02C0220F331F57
:100D60000A94E2F7242B2083EE89FF8920810F8CDF
:100D700002C0880F991F0A94E2F78095822380832E
:100D8000DF91CF911F910F91FF90EF90DF90CF9067
:100D90000895CF92DF92EF92FF92EAEEF2E0138293
:100DA000128288EEC82E83E0D82EE12CF12CC4826A
:100DB000D582E682F78266E672E07183608388EE10
:100DC00094E09587848784EA94E09787868785EC0A
:100DD00090E0918B808B84EC90E0938B828B80EC05
:100DE00090E0958B848B81EC90E0978B868B82ECE6
:100DF00090E0918F808F86EC90E0938F828F44E01B
:100E0000448F33E0358F27E0268F95E0978F81E080
:100E100080A3E8ECF2E013821282C482D582E682DB
:100E2000F78271836083A0E6B4E0B587A487ACE164
:100E3000B4E0B787A687ADECB0E0B18BA08BACEC8B
:100E4000B0E0B38BA28BA8ECB0E0B58BA48BA9EC7F
:100E5000B0E0B78BA68BAAECB0E0B18FA08FAEEC60
:100E6000B0E0B38FA28F448F358F268F978F80A3EA
:100E7000E6EAF2E013821282C482D582E682F78229
:100E800071836083A8EDB3E0B587A487A4E9B3E0DC
:100E9000B787A687A5EDB0E0B18BA08BA4EDB0E03D
:100EA000B38BA28BA0EDB0E0B58BA48BA1EDB0E02D
:100EB000B78BA68BA2EDB0E0B18FA08FA6EDB0E00E
:100EC000B38FA28F448F358F268F978F80A3E4E84E
:100ED000F2E013821282C482D582E682F7827183A5
:100EE000608360E573E0758764876CE073E0778703
:100EF000668765E371E0718B608B64E371E0738BEF
:100F0000628B60E371E0758B648B61E371E0778BDA
:100F1000668B62E371E0718F608F66E371E0738FBF
:100F2000628F448F358F268F978F80A3FF90EF902D
:100F3000DF90CF900895CF92DF92EF92FF920F93C0
:100F40001F93CF93DF936C018B017A01EC01C35D9A
:100F5000DA4F888187FF04C0FB011182108224C010
:100F60008CE08C9D90018D9D300D11248881A9010C
:100F7000480F511D87FD5A9580912C0590E0481728
:100F8000590794F48881A901480F511D87FD5A958E
:100F9000CA01FA01EE0FFF1F8E0F9F1FFC01EF5CCD
:100FA000FA4F808186FD19C088818F5F88838CE02D
:100FB0008C9D90018D9D300D11248881A901480FD1
:100FC000511D87FD5A9580912C0590E048175907CF
:100FD000BCF488818C3044F113C08881280F311D06
:100FE00087FD3A95F901EE0FFF1F2E0F3F1FF90104
:100FF000EF5CFA4F808160E08F730E94090BD4CFC1
:10100000F80180819181049680349C4918F480E431
:101010009CE904C0F801808191810496F7019183D5
:1010200080838FEF888345C0F8014081518188819A
:10103000B901680F711D87FD7A95CB01FB01EE0F99
:10104000FF1F8E0F9F1FFC01EF5CFA4F8181928181
:10105000840F951FF701918380838881A901480F30
:10106000511D87FD5A95CA01FA01EE0FFF1F8E0F21
:101070009F1FFC01EF5CFA4F808186FF1AC08881B8
:10108000280F311D87FD3A95F901EE0FFF1F2E0F36
:101090003F1FF901EF5CFA4F808161E08F73DF91B0
:1010A000CF911F910F91FF90EF90DF90CF900C9414
:1010B000090BDF91CF911F910F91FF90EF90DF907F
:1010C000CF9008951F920F920FB60F9211240BB676
:1010D0000F922F933F934F935F936F937F938F93D1
:1010E0009F93AF93BF93EF93FF9348E850E064E87A
:1010F00070E081E090E00E949B07FF91EF91BF912B
:10110000AF919F918F917F916F915F914F913F919F
:101110002F910F900BBE0F900FBE0F901F90189540
:101120001F920F920FB60F9211240BB60F922F93AE
:101130003F934F935F936F937F938F939F93AF935F
:10114000BF93EF93FF9348E950E064E970E082E0D9
:1011500090E00E949B07FF91EF91BF91AF919F910B
:101160008F917F916F915F914F913F912F910F9050
:101170000BBE0F900FBE0F901F9018951F920F92ED
:101180000FB60F9211240BB60F922F933F934F93EC
:101190005F936F937F938F939F93AF93BF93EF93DF
:1011A000FF9348EA50E064EA70E083E090E00E9438
:1011B0009B07FF91EF91BF91AF919F918F917F918D
:1011C0006F915F914F913F912F910F900BBE0F90B8
:1011D0000FBE0F901F9018951F920F920FB60F928F
:1011E00011240BB60F922F933F934F935F936F93FE
:1011F0007F938F939F93AF93BF93EF93FF9348E2B7
:1012000051E064E271E080E090E00E949B07FF9172
:10121000EF91BF91AF919F918F917F916F915F916E
:101220004F913F912F910F900BBE0F900FBE0F90DB
:101230001F901895FC0190912C059033A0F481E04B
:10124000890F80932C059083892F90E0FC01EE0F8D
:10125000FF1F8E0F9F1FFC01EF5CFA4F88EB9BE096
:101260009283818308958FEF80830895DF92EF92B8
:10127000FF920F931F93CF93DF93EC01D62E7A0149
:1012800089018881803308F06AC061E08D2D0E9459
:10129000CD0A8881E82FF0E09F01220F331FE20F73
:1012A000F31FEF5CFA4F9D2D9F732081207CD22E7F
:1012B000D92AD08260E272E0AB014E195F0957FF74
:1012C00002C04D5F5F4F55954795559547954983AA
:1012D00040E659E09A01201B310B37FF02C02D5F19
:1012E0003F4F35952795359527952A836CE00E94C9
:1012F0008D0B9CE0899FB001112440E050E09A01E1
:10130000260F371FF901EE0FFF1F2E0F3F1FF901A8
:10131000EF5CFA4F908196FD16C04F5F5F4F4C30E7
:10132000510569F7813021F51092800082E08093A9
:1013300081001092850010928400B19A80916F0014
:10134000826080936F00E881F0E0CF01880F991FE1
:10135000E80FF91FEF5CFA4F8081806480838881F9
:10136000DF91CF911F910F91FF90EF90DF90089543
:10137000823061F410929000809391001092950059
:101380001092940088BB80937100DDCF833069F4A4
:101390001092A00082E08093A1001092A50010920C
:1013A000A40089BB80937200CECF8111CCCF109264
:1013B000200182E0809321011092250110922401E6
:1013C0008ABB80937300BFCF20E639E040E252E051
:1013D0000C943609FC019081903380F5818128E8D6
:1013E00030E0281B310987FD3395220F331F220F70
:1013F000331F621773077CF0828128E532E0281BD7
:10140000310987FD3395220F331F220F331F6217D7
:1014100073070CF49B014FB7F894892F90E0FC01FF
:10142000EE0FFF1F8E0F9F1FFC01EF5CFA4F225043
:101430003109220F331F328321834FBF0895AF92AA
:10144000BF92CF92DF92EF92FF920F931F93CF93B1
:10145000DF93EC01603282E078070CF03FC077FD4B
:1014600006C0653B71052CF064EB70E002C060E0E3
:1014700070E0898128E830E05901A81AB10887FD99
:10148000B394AA0CBB1CAA0CBB1C0B2C000CCC08E4
:10149000DD08072E000C880B990B2A8108E512E065
:1014A000021B110927FD1395000F111F000F111FBB
:1014B000012E000C220B330B3F932F931F930F939E
:1014C00014EBE12EF12C00E010E020E030E0A90167
:1014D0000E94390B0F900F900F900F90CE01DF916B
:1014E000CF911F910F91FF90EF90DF90CF90BF9021
:1014F000AF900C94EA0990E0FC013197E131F105DD
:1015000008F04AC08827EE58FF4F8F4F0C94DA0B33
:10151000809180008F7703C0809180008F7D8093C1
:101520008000089584B58F7702C084B58F7D84BD17
:1015300008958091B0008F7703C08091B0008F7DB7
:101540008093B0000895809190008F7707C08091BC
:1015500090008F7D03C080919000877F80939000E2
:1015600008958091A0008F7707C08091A0008F7DA3
:1015700003C08091A000877F8093A0000895809190
:1015800020018F7707C0809120018F7D03C080915B
:101590002001877F809320010895CF93DF9390E00F
:1015A000FC01E455FE4F2491FC01EE50FE4F849166
:1015B000882361F190E0880F991FFC01EE5AFD4FDE
:1015C000C591D491FC01E85CFD4FA591B4916111E6
:1015D00009C09FB7F8948881209582238883EC9175
:1015E0002E230BC0623061F49FB7F8943881822FAC
:1015F000809583238883EC912E2B2C939FBF06C06C
:101600008FB7F894E8812E2B28838FBFDF91CF917D
:1016100008951F93CF93DF93282F30E0F901EA5903
:10162000FE4F8491F901E455FE4FD491F901EE503B
:10163000FE4FC491CC23C9F0162F81110E947B0A62
:10164000EC2FF0E0EE0FFF1FE85CFD4FA591B49189
:101650008FB7F894111105C09C91ED2FE095E92307
:1016600002C0EC91ED2BEC938FBFDF91CF911F91D6
:1016700008954F925F926F927F92AF92BF92CF92F6
:10168000DF92EF92FF920F931F93CF93DF93CDB72B
:10169000DEB729013A019B01AC012419350946093D
:1016A00057098A899B89AC89BD89BC01CD016A191A
:1016B0007B098C099D090E947D0BA80197012419C3
:1016C0003509460957090E94BB0BCA01B9016A0DC9
:1016D0007B1D8C1D9D1DDF91CF911F910F91FF9060
:1016E000EF90DF90CF90BF90AF907F906F905F9022
:1016F0004F900895F8940C94FC0BDB018F939F930B
:101700000E94E20BBF91AF91A29F800D911DA39FFC
:10171000900DB29F900D11240895991B79E004C09B
:10172000991F961708F0961B881F7A95C9F7809520
:101730000895A1E21A2EAA1BBB1BFD010DC0AA1F12
:10174000BB1FEE1FFF1FA217B307E407F50720F02A
:10175000A21BB30BE40BF50B661F771F881F991FA5
:101760001A9469F760957095809590959B01AC01EE
:10177000BD01CF010895052E97FB1EF400940E9431
:10178000D20B57FD07D00E94990B07FC03D04EF4F3
:101790000C94D20B50954095309521953F4F4F4F6B
:1017A0005F4F089590958095709561957F4F8F4F0D
:1017B0009F4F0895EE0FFF1F881F8BBF0790F69174
:1017C000E02D19940E94ED0BA59F900DB49F900DF4
:1017D000A49F800D911D11240895A29FB001B39F75
:1017E000C001A39F700D811D1124911DB29F700D2A
:0C17F000811D1124911D0895F894FFCF75
:1017FC00010A008A02DC055374617274696E6720F9
:10180C0075702E2E2E00456C626F773A20572F5331
:10181C000053686F756C6465723A20412F44004226
:10182C006173653A20512F45004D6963726F204DED
:10183C006F646520456E6761676564005374616E03
:10184C0064617264204D6F646520456E67616765E5
:10185C006400000000001D045C03C603F203D60301
:02186C00120464
:00000001FF
