:100000000C9445010C9476010C9476010C947601C5
:100010000C9476010C9476010C9476010C94760184
:100020000C9476010C9476010C9476010C94760174
:100030000C9476010C9476010C9476010C94760164
:100040000C9476010C94CE080C9476010C947601F5
:100050000C9476010C9476010C9476010C942F028A
:100060000C9476010C94E5040C94B1050C94760183
:100070000C9476010C9476010C9476010C94760124
:100080000C94FC080C9476010C9476010C94760187
:100090000C9418050C94F0050C9476010C947601E0
:1000A0000C9476010C9476010C942A090C94760138
:1000B0000C9476010C9476010C9476010C945809FA
:1000C0000C9476010C9476010C9476010C944B05FB
:1000D0000C942F060C9476010C947E050C946E06FD
:1000E0000C9476016203650358035C039C03690367
:1000F0006D03730377037B038103850389039C03EB
:100100008F03930397030C946D030C9481030C9459
:1001100089040C9485030C9432040C94500B0C94B9
:1001200065030C9423020C9458030C949C030C94C8
:100130007E040C9477030C9497030C9473030C9433
:1001400062030C9489030C9442040C9435070C94BC
:100150008F030C9493030C945E040C947B030C9417
:1001600069030C945C030000090A02080B0C0D07DC
:100170000603040100000000000000000000000071
:10018000000000000000000000000000000000006F
:10019000000011100F00000000000000000000002F
:1001A000000000000000000000000000010210201C
:1001B000200808102040102040800201020108049D
:1001C0000201010204081020408080402010080431
:1001D000020180040201804020100804020108048A
:1001E00002010102040810204080010204081020CE
:1001F00040800505050507050808080802020202F7
:100200000A0A0808040404040101010101010101B2
:100210000303030303030303040707070C0C0C0C7D
:100220000C0C0C0C02020202060606060606060666
:100230000B0B0B0B0B0B0B0B0000200023002600FD
:1002400029002C002F0032000001000003010601EC
:10025000090100002200250028002B002E0031009B
:10026000340002010000050108010B01000021001B
:10027000240027002A002D00300033000101000077
:10028000040107010A012302350711241FBECFEF25
:10029000D1E2DEBFCDBF00E00CBF12E0A0E0B2E0D3
:1002A000EAE7F8E100E00BBF02C007900D92A2312F
:1002B000B107D9F725E0A2E1B2E001C01D92A13655
:1002C000B207E1F711E0C5E4D1E000E006C02197F4
:1002D0000109802FFE010E94190CC334D10780E070
:1002E0000807A9F70E9478010C94B90B0C94000040
:1002F0000E947D010E94B901FDCF0E94C40240E826
:1003000055E260E070E08AE892E00E94AD0662E0AB
:1003100089E00E949D0362E088E00E949D0368E0FE
:1003200070E088E192E00E94500A69E070E082E1AA
:1003300092E00E94500A6AE070E085E192E00E943B
:10034000500A6AE070E080E090E00C949E029C010C
:10035000245C31402937310530F0843C914034F041
:100360008FEF9FEF089580E090E0089581E090E0A6
:100370000895CF92DF92EF92FF920F931F93CF9346
:10038000DF9386E30E9426037C0187E30E94260315
:100390006C0189E00E9409048C0188E00E94090434
:1003A000EC0185E192E00E94050B82E192E00E945F
:1003B000050B88E192E00E94050BC6010E94A7018F
:1003C000181619061CF460E070E004C0892B31F0A7
:1003D00064EB70E082E192E00E948B0AC7010E9408
:1003E000A701181619061CF460E070E004C0892B00
:1003F00031F064EB70E085E192E00E948B0A011518
:10040000110529F42197B1F460E070E007C00130D4
:10041000110581F4CD2B71F464EB70E088E192E07A
:10042000DF91CF911F910F91FF90EF90DF90CF90D0
:100430000C948B0ADF91CF911F910F91FF90EF9059
:10044000DF90CF90089588E192E00E94860985E1CF
:1004500092E00E94860982E192E00C9486091F9244
:100460000F920FB60F9211242F933F938F939F9368
:10047000AF93BF9380911C0290911D02A0911E0228
:10048000B0911F0230911B0223E0230F2D3720F47F
:100490000196A11DB11D05C026E8230F0296A11DDE
:1004A000B11D20931B0280931C0290931D02A09308
:1004B0001E02B0931F028091200290912102A09110
:1004C0002202B09123020196A11DB11D809320024A
:1004D00090932102A0932202B0932302BF91AF9187
:1004E0009F918F913F912F910F900FBE0F901F9072
:1004F00018953FB7F8948091200290912102A09125
:100500002202B091230226B5A89B05C02F3F19F007
:100510000196A11DB11D3FBFBA2FA92F982F882783
:10052000820F911DA11DB11DBC01CD0142E0660FDE
:10053000771F881F991F4A95D1F70895CF92DF92B0
:10054000EF92FF92CF93DF936B017C010E947902BF
:10055000EB01C114D104E104F10479F00E947902A5
:100560006C1B7D0B683E7340A0F381E0C81AD10874
:10057000E108F108C851DC4FECCFDF91CF91FF903B
:10058000EF90DF90CF900895789484B5826084BD19
:1005900084B5816084BD85B5826085BD85B5816087
:1005A00085BDEEE6F0E0808181608083E1E8F0E0E7
:1005B0001082808182608083808181608083E0E816
:1005C000F0E0808181608083E1EBF0E080818460F5
:1005D0008083E0EBF0E0808181608083E1E9F0E0FE
:1005E000808182608083808181608083E0E9F0E0A7
:1005F000808181608083E1EAF0E080818260808395
:10060000808181608083E0EAF0E080818160808386
:10061000E1E2F1E08081826080838081816080837B
:10062000E0E2F1E0808181608083EAE7F0E08081B0
:100630008460808380818260808380818160808308
:100640008081806880831092C1000895863308F00D
:10065000865390917B00282F2870977F922B909340
:100660007B0087702091000290E4299F9001112463
:10067000822B80937C0080917A00806480937A0042
:1006800080917A0086FDFCCF8091780020917900DE
:1006900090E0922B089590E0FC013197E131F10553
:1006A00008F04AC08827EE58FF4F8F4F0C94190C62
:1006B000809180008F7703C0809180008F7D809330
:1006C0008000089584B58F7702C084B58F7D84BD86
:1006D00008958091B0008F7703C08091B0008F7D26
:1006E0008093B0000895809190008F7707C080912B
:1006F00090008F7D03C080919000877F8093900051
:1007000008958091A0008F7707C08091A0008F7D11
:1007100003C08091A000877F8093A00008958091FE
:1007200020018F7707C0809120018F7D03C08091C9
:100730002001877F809320010895CF93DF9390E07D
:10074000FC01E455FE4F2491FC01EE50FE4F8491D4
:10075000882361F190E0880F991FFC01E459FD4F57
:10076000C591D491FC01EE5AFD4FA591B491611150
:1007700009C09FB7F8948881209582238883EC91E3
:100780002E230BC0623061F49FB7F8943881822F1A
:10079000809583238883EC912E2B2C939FBF06C0DA
:1007A0008FB7F894E8812E2B28838FBFDF91CF91EC
:1007B00008951F93CF93DF93282F30E0F901EA5972
:1007C000FE4F8491F901E455FE4FD491F901EE50AA
:1007D000FE4FC491CC23C9F0162F81110E944B0308
:1007E000EC2FF0E0EE0FFF1FEE5AFD4FA591B491F4
:1007F0008FB7F894111105C09C91ED2FE095E92376
:1008000002C0EC91ED2BEC938FBFDF91CF911F9144
:100810000895CF93DF93282F30E0F901EA59FE4F76
:100820008491F901E455FE4FD491F901EE50FE4F49
:10083000C491CC2391F081110E944B03EC2FF0E086
:10084000EE0FFF1FE85CFD4FA591B491EC91ED23F5
:1008500081E090E021F480E002C080E090E0DF9150
:10086000CF910895FC0124853585F901E05CFF4FA7
:1008700080819181329620813181821B930B8F730D
:1008800099270895DC011C96ED91FC911D97DF01DD
:10089000A05CBF4F2D913C91119712968D919C9128
:1008A00011972817390739F08D919C91E80FF91F9E
:1008B000808190E008958FEF9FEF0895FC01A4855B
:1008C000B585FD01E05CFF4F20813181329680814A
:1008D00091812817390779F080819181A80FB91F7C
:1008E0008C91208131812F5F3F4F2F7333273183CC
:1008F000208390E008958FEF9FEF0895FC0181A180
:10090000882329F0A489B5898C9186FFFBCF11A299
:1009100008950F931F93CF93DF93FC01A685B785AE
:100920008D01005C1F4FE8018881998101968F73CA
:100930009927AD014E5B5F4FEA012881398182170B
:100940009307D1F3E80128813981A20FB31F6C937B
:10095000A685B785A05CBF4F11969C938E93A68900
:10096000B7892C9181E090E0078C02C0880F991F15
:100970000A94E2F7822B8C9381E081A30488F589A5
:10098000E02D80818064808381E090E0DF91CF91D1
:100990001F910F910895FB01E05CFF4F2081318191
:1009A0002F5F3F4F2F733327DB01AE5BBF4F4D915E
:1009B0005C912417350741F040815181DB01A40F80
:1009C000B51F8C933183208308951F920F920FB629
:1009D0000F9211240BB60F922F933F934F935F9377
:1009E0006F937F938F939F93AF93BF93EF93FF93F7
:1009F0008091C00082FD07C08091C60068E874E065
:100A00000E94CB0402C08091C600FF91EF91BF917C
:100A1000AF919F918F917F916F915F914F913F9196
:100A20002F910F900BBE0F900FBE0F901F90189537
:100A30001F920F920FB60F9211240BB60F922F93A5
:100A40003F934F935F936F937F938F939F93AF9356
:100A5000BF93EF93FF938091C80082FD07C0809100
:100A6000CE0060E074E00E94CB0402C08091CE0012
:100A7000FF91EF91BF91AF919F918F917F916F9176
:100A80005F914F913F912F910F900BBE0F900FBE32
:100A90000F901F9018951F920F920FB60F9211246E
:100AA0000BB60F922F933F934F935F936F937F9368
:100AB0008F939F93AF93BF93EF93FF938091D00059
:100AC00082FD07C08091D60068E773E00E94CB04E6
:100AD00002C08091D600FF91EF91BF91AF919F919D
:100AE0008F917F916F915F914F913F912F910F90D7
:100AF0000BBE0F900FBE0F901F9018951F920F9274
:100B00000FB60F9211240BB60F922F933F934F9372
:100B10005F936F937F938F939F93AF93BF93EF9365
:100B2000FF938091300182FD07C08091360160EF14
:100B300072E00E94CB0402C080913601FF91EF91D8
:100B4000BF91AF919F918F917F916F915F914F91E5
:100B50003F912F910F900BBE0F900FBE0F901F90E3
:100B600018951F920F920FB60F9211240BB60F9289
:100B70002F933F938F939F93EF93FF932091840440
:100B80003091850480918604909187042817390755
:100B900031F48091C1008F7D8093C10014C0E09139
:100BA0008604F0918704EC5BFB4F208180918604E2
:100BB0009091870401968F7399279093870480936F
:100BC00086042093C600FF91EF919F918F913F91F2
:100BD0002F910F900BBE0F900FBE0F901F90189586
:100BE0001F920F920FB60F9211240BB60F922F93F4
:100BF0003F938F939F93EF93FF932091FC0330914A
:100C0000FD038091FE039091FF032817390731F40B
:100C10008091C9008F7D8093C90014C0E091FE03CC
:100C2000F091FF03E454FC4F20818091FE039091EA
:100C3000FF0301968F7399279093FF038093FE0320
:100C40002093CE00FF91EF919F918F913F912F9133
:100C50000F900BBE0F900FBE0F901F9018951F9214
:100C60000F920FB60F9211240BB60F922F933F9352
:100C70008F939F93EF93FF932091740330917503AB
:100C800080917603909177032817390731F480918A
:100C9000D1008F7D8093D10014C0E0917603F09154
:100CA0007703EC5CFC4F2081809176039091770371
:100CB00001968F73992790937703809376032093FF
:100CC000D600FF91EF919F918F913F912F910F90BF
:100CD0000BBE0F900FBE0F901F9018951F920F9292
:100CE0000FB60F9211240BB60F922F933F938F9351
:100CF0009F93EF93FF932091EC023091ED0280914E
:100D0000EE029091EF022817390731F480913101FA
:100D10008F7D8093310114C0E091EE02F091EF02DB
:100D2000E455FD4F20818091EE029091EF020196F3
:100D30008F7399279093EF028093EE0220933601F0
:100D4000FF91EF919F918F913F912F910F900BBE4B
:100D50000F900FBE0F901F901895CF92DF92EF92D9
:100D6000FF920F931F93CF93DF93EC016A017B01F6
:100D70004115514E6105710509F1EC89FD8981E04C
:100D800090E008A002C0880F991F0A94E2F78083C0
:100D900060E079E08DE390E0A70196010E94D80B16
:100DA00089019A01015011092109310936952795C8
:100DB00017950795980101151041A8F0EC89FD8958
:100DC000108260E874E88EE190E0A70196010E942D
:100DD000D80BDA01C9010197A109B109B695A79508
:100DE000979587959C01E889F9893083EA89FB8981
:100DF000208319A2EE89FF89408181E090E09C0167
:100E00000C8C02C0220F331F0A94E2F7242B20839C
:100E1000EE89FF8940819C010D8C02C0220F331F97
:100E20000A94E2F7242B2083EE89FF8940819C01FC
:100E30000E8C02C0220F331F0A94E2F7242B20836A
:100E4000EE89FF8920810F8C02C0880F991F0A94B8
:100E5000E2F7809582238083DF91CF911F910F91DC
:100E6000FF90EF90DF90CF900895CF92DF92EF92B6
:100E7000FF92EAE8F2E01382128288EEC82E83E045
:100E8000D82EE12CF12CC482D582E682F78265E06F
:100E900072E07183608388E894E09587848784E4B6
:100EA00094E09787868785EC90E0918B808B84EC2B
:100EB00090E0938B828B80EC90E0958B848B81EC1F
:100EC00090E0978B868B82EC90E0918F808F86EC00
:100ED00090E0938F828F44E0448F33E0358F27E09A
:100EE000268F95E0978F81E080A3E8E6F2E01382F9
:100EF0001282C482D582E682F78271836083A0E089
:100F0000B4E0B587A487ACEBB3E0B787A687ADECB8
:100F1000B0E0B18BA08BACECB0E0B38BA28BA8ECB3
:100F2000B0E0B58BA48BA9ECB0E0B78BA68BAAEC94
:100F3000B0E0B18FA08FAEECB0E0B38FA28F448F42
:100F4000358F268F978F80A3E6E4F2E0138212821A
:100F5000C482D582E682F78271836083A8E7B3E01A
:100F6000B587A487A4E3B3E0B787A687A5EDB0E073
:100F7000B18BA08BA4EDB0E0B38BA28BA0EDB0E061
:100F8000B58BA48BA1EDB0E0B78BA68BA2EDB0E042
:100F9000B18FA08FA6EDB0E0B38FA28F448F358FB5
:100FA000268F978F80A3E4E2F2E013821282C4823C
:100FB000D582E682F7827183608360EF72E0758785
:100FC00064876CEA72E07787668765E371E0718B0E
:100FD000608B64E371E0738B628B60E371E0758B0F
:100FE000648B61E371E0778B668B62E371E0718FF4
:100FF000608F66E371E0738F628F448F358F268F29
:10100000978F80A3FF90EF90DF90CF900895CF92BD
:10101000DF92EF92FF920F931F93CF93DF936C01B8
:101020008B017A01EC01C353DB4F888187FF04C039
:10103000FB011182108224C08CE08C9D90018D9D5B
:10104000300D11248881A901480F511D87FD5A9543
:101050008091CC0490E04817590794F48881A90145
:10106000480F511D87FD5A95CA01FA01EE0FFF1F67
:101070008E0F9F1FFC01EF52FB4F808186FD19C030
:1010800088818F5F88838CE08C9D90018D9D300DD1
:1010900011248881A901480F511D87FD5A9580911F
:1010A000CC0490E048175907BCF488818C3044F197
:1010B00013C08881280F311D87FD3A95F901EE0F85
:1010C000FF1F2E0F3F1FF901EF52FB4F808160E0A1
:1010D0008F730E94D903D4CFF80180819181049647
:1010E00080349C4918F480E49CE904C0F8018081B4
:1010F00091810496F701918380838FEF888345C0A7
:10110000F801408151818881B901680F711D87FD07
:101110007A95CB01FB01EE0FFF1F8E0F9F1FFC0185
:10112000EF52FB4F81819281840F951FF7019183CC
:1011300080838881A901480F511D87FD5A95CA01F6
:10114000FA01EE0FFF1F8E0F9F1FFC01EF52FB4FA6
:10115000808186FF1AC08881280F311D87FD3A954E
:10116000F901EE0FFF1F2E0F3F1FF901EF52FB4F4A
:10117000808161E08F73DF91CF911F910F91FF907C
:10118000EF90DF90CF900C94D903DF91CF911F9116
:101190000F91FF90EF90DF90CF9008951F920F92E4
:1011A0000FB60F9211240BB60F922F933F934F93CC
:1011B0005F936F937F938F939F93AF93BF93EF93BF
:1011C000FF9348E850E064E870E081E090E00E941E
:1011D0000708FF91EF91BF91AF919F918F917F9100
:1011E0006F915F914F913F912F910F900BBE0F9098
:1011F0000FBE0F901F9018951F920F920FB60F926F
:1012000011240BB60F922F933F934F935F936F93DD
:101210007F938F939F93AF93BF93EF93FF9348E98F
:1012200050E064E970E082E090E00E940708FF91DE
:10123000EF91BF91AF919F918F917F916F915F914E
:101240004F913F912F910F900BBE0F900FBE0F90BB
:101250001F9018951F920F920FB60F9211240BB684
:101260000F922F933F934F935F936F937F938F933F
:101270009F93AF93BF93EF93FF9348EA50E064EAE4
:1012800070E083E090E00E940708FF91EF91BF912A
:10129000AF919F918F917F916F915F914F913F910E
:1012A0002F910F900BBE0F900FBE0F901F901895AF
:1012B0001F920F920FB60F9211240BB60F922F931D
:1012C0003F934F935F936F937F938F939F93AF93CE
:1012D000BF93EF93FF9348E251E064E271E080E056
:1012E00090E00E940708FF91EF91BF91AF919F910D
:1012F0008F917F916F915F914F913F912F910F90BF
:101300000BBE0F900FBE0F901F901895FC0190918F
:10131000CC049033A0F481E0890F8093CC049083B7
:10132000892F90E0FC01EE0FFF1F8E0F9F1FFC0125
:10133000EF52FB4F88EB9BE09283818308958FEF00
:1013400080830895DF92EF92FF920F931F93CF93C4
:10135000DF93EC01D62E7A0189018881803308F071
:101360006AC061E08D2D0E949D038881E82FF0E026
:101370009F01220F331FE20FF31FEF52FB4F9D2DF2
:101380009F732081207CD22ED92AD08260E272E025
:10139000AB014E195F0957FF02C04D5F5F4F559576
:1013A000479555954795498340E659E09A01201B9A
:1013B000310B37FF02C02D5F3F4F3595279535958F
:1013C00027952A836CE00E94CC0B9CE0899FB0019A
:1013D000112440E050E09A01260F371FF901EE0F6B
:1013E000FF1F2E0F3F1FF901EF52FB4F908196FD1B
:1013F00016C04F5F5F4F4C30510569F7813021F5C2
:101400001092800082E080938100109285001092FB
:101410008400B19A80916F00826080936F00E881B0
:10142000F0E0CF01880F991FE80FF91FEF52FB4F33
:101430008081806480838881DF91CF911F910F919B
:10144000FF90EF90DF900895823061F41092900049
:1014500080939100109295001092940088BB809325
:101460007100DDCF833069F41092A00082E0809398
:10147000A1001092A5001092A40089BB8093720075
:10148000CECF8111CCCF1092200182E08093210138
:1014900010922501109224018ABB80937300BFCF64
:1014A00020E639E040E252E00C94A209FC01908170
:1014B000903380F5818128E830E0281B310987FDD1
:1014C0003395220F331F220F331F621773077CF0EF
:1014D000828128E532E0281B310987FD3395220FF0
:1014E000331F220F331F621773070CF49B014FB792
:1014F000F894892F90E0FC01EE0FFF1F8E0F9F1FC5
:10150000FC01EF52FB4F22503109220F331F32836F
:1015100021834FBF0895AF92BF92CF92DF92EF9297
:10152000FF920F931F93CF93DF93EC01603282E021
:1015300078070CF03FC077FD06C0653B71052CF0C5
:1015400064EB70E002C060E070E0898128E830E080
:101550005901A81AB10887FDB394AA0CBB1CAA0CA8
:10156000BB1C0B2C000CCC08DD08072E000C880BD4
:10157000990B2A8108E512E0021B110927FD13953A
:10158000000F111F000F111F012E000C220B330B37
:101590003F932F931F930F9314EBE12EF12C00E058
:1015A00010E020E030E0A9010E94780B0F900F902E
:1015B0000F900F90CE01DF91CF911F910F91FF906F
:1015C000EF90DF90CF90BF90AF900C94560AFC0143
:1015D00080818F3FB9F090E0FC01EE0FFF1F8E0F6E
:1015E0009F1FFC01EF52FB4F8181928133E0880FF6
:1015F000991F3A95E1F744E0969587954A95E1F76A
:101600000296089580E090E00895AF92BF92CF9245
:10161000DF92EF92FF920F931F93CF93DF93EC0132
:101620000E94E70A2A8148E552E07A01E21AF108AD
:1016300027FDF394EE0CFF1CEE0CFF1C0F2C000C8E
:10164000000B110B498128E830E0241B310947FDCC
:101650003395220F331F220F331F032E000C440B30
:10166000550B0196BC01990F880B990B1F921F9285
:101670001F92E4EBEF93A12CB12C65010E94780B33
:101680000F900F900F900F90CB01DF91CF911F9192
:101690000F91FF90EF90DF90CF90BF90AF900895A3
:1016A000CF92DF92EF92FF920F931F93CF93DF932E
:1016B0006C01EB017B01E40EF51E00E010E0CE159D
:1016C000DF0561F06991D601ED91FC910190F08107
:1016D000E02DC6011995080F191FF1CFC801DF9140
:1016E000CF911F910F91FF90EF90DF90CF900895D1
:1016F0004F925F926F927F92AF92BF92CF92DF92A2
:10170000EF92FF920F931F93CF93DF93CDB7DEB786
:1017100029013A019B01AC012419350946095709F1
:101720008A899B89AC89BD89BC01CD016A197B0975
:101730008C099D090E94BC0BA80197012419350949
:10174000460957090E94FA0BCA01B9016A0D7B1DAF
:101750008C1D9D1DDF91CF911F910F91FF90EF90F8
:10176000DF90CF90BF90AF907F906F905F904F9041
:101770000895F8940C943B0CDB018F939F930E9487
:10178000210CBF91AF91A29F800D911DA39F900D41
:10179000B29F900D11240895991B79E004C0991F00
:1017A000961708F0961B881F7A95C9F780950895BB
:1017B000A1E21A2EAA1BBB1BFD010DC0AA1FBB1F55
:1017C000EE1FFF1FA217B307E407F50720F0A21BC7
:1017D000B30BE40BF50B661F771F881F991F1A9434
:1017E00069F760957095809590959B01AC01BD015E
:1017F000CF010895052E97FB1EF400940E94110C52
:1018000057FD07D00E94D80B07FC03D04EF40C9470
:10181000110C50954095309521953F4F4F4F5F4F9C
:10182000089590958095709561957F4F8F4F9F4F4C
:101830000895EE0FFF1F881F8BBF0790F691E02DD4
:1018400019940E942C0CA59F900DB49F900DA49FFD
:10185000800D911D11240895A29FB001B39FC00176
:10186000A39F700D811D1124911DB29F700D811DCC
:0A1870001124911D0895F894FFCF94
:10187A0001000000008904500B32045E0442047E19
:02188A00040058
:00000001FF
